:1000000002741D027AA24100470000028BA0758F86
:10001000012222028BA60230F92222028BAC900A26
:1000200054E004F0E0D39402400FE4F0900A53E06F
:1000300004F0E0947E4002E4F02222028275027114
:10004000A90000027B8AE4900F09F0900F09E0FFFD
:10005000C3947E501474542FF582E4340DF583E478
:10006000F0900F09E004F080E2E4900F09F0900FA7
:1000700009E0FFC39415501474D22FF582E4340DB7
:10008000F583E4F0900F09E004F080E2202E0302F3
:1000900005E4E51E64086003020544900F09F09032
:1000A0000F09E0FFC39406400302022875F015EF24
:1000B000A424EBF582E5F0340BF5837401F075F0C0
:1000C00015EFA42469F582E5F0340CF58374EFF0A4
:1000D000EF75F015A42468F582E4340DF5837401FE
:1000E000F075F015EFA424EAF582E5F0340BF58302
:1000F0007428F075F015EFA42468F582E5F0340C4F
:10010000F58374C8F0EF75F015A42467F582E43424
:100110000DF5837401F075F015EFA424E9F582E57F
:10012000F0340BF5837450F075F015EFA42467F5E7
:1001300082E5F0340CF58374A0F0EF75F015A4247B
:1001400066F582E4340DF5837401F075F015EFA4C3
:1001500024E8F582E5F0340BF5837478F075F0153A
:10016000EFA42466F582E5F0340CF5837478F0EFA3
:1001700075F015A42465F582E4340DF5837401F05F
:1001800075F015EFA424E7F582E5F0340BF58374E0
:10019000A0F075F015EFA42465F582E5F0340CF5B8
:1001A000837450F0EF75F015A42464F582E4340DE7
:1001B000F5837401F075F015EFA424E6F582E5F0FF
:1001C000340BF58374C8F075F015EFA42464F58240
:1001D000E5F0340CF5837428F0EF75F015A4246372
:1001E000F582E4340DF5837401F075F015EFA42465
:1001F000E5F582E5F0340BF58374EFF075F015EF5B
:10020000A42463F582E5F0340CF5837401F0EF75F6
:10021000F015A42462F582E4340DF5837401F090A6
:100220000F09E004F002009FE4900F09F0900F091D
:10023000E0FFC3940640030203B675F015EFA42453
:10024000E0F582E5F0340CF5837401F075F015EFFC
:10025000A424E4F582E5F0340BF58374EFF0EF7538
:10026000F015A42461F582E4340DF5837402F07571
:10027000F015EFA424DFF582E5F0340CF583742843
:10028000F075F015EFA424E3F582E5F0340BF58367
:1002900074C8F0EF75F015A42460F582E4340DF510
:1002A000837402F075F015EFA424DEF582E5F034D6
:1002B0000CF5837450F075F015EFA424E2F582E597
:1002C000F0340BF58374A0F0EF75F015A4245FF5FE
:1002D00082E4340DF5837402F075F015EFA424DD8B
:1002E000F582E5F0340CF5837478F075F015EFA421
:1002F00024E1F582E5F0340BF5837478F0EF75F0C6
:1003000015A4245EF582E4340DF5837402F075F0D3
:1003100015EFA424DCF582E5F0340CF58374A0F02D
:1003200075F015EFA424E0F582E5F0340BF5837445
:1003300050F0EF75F015A4245DF582E4340DF583DB
:100340007402F075F015EFA424DBF582E5F0340CAF
:10035000F58374C8F075F015EFA424DFF582E5F09D
:10036000340BF5837428F0EF75F015A4245CF58246
:10037000E4340DF5837402F075F015EFA424DAF57A
:1003800082E5F0340CF58374EFF075F015EFA424DA
:10039000DEF582E5F0340BF5837401F0EF75F015AE
:1003A000A4245BF582E4340DF5837402F0900F0908
:1003B000E004F002022DE4900F09F0900F09E0FF35
:1003C000C3940640030205E475F015EFA4245BF521
:1003D00082E5F0340CF5837401F075F015EFA42478
:1003E000D9F582E5F0340CF58374EFF0EF75F01574
:1003F000A4245AF582E4340DF5837403F075F015E6
:10040000EFA4245AF582E5F0340CF5837428F075D6
:10041000F015EFA424D8F582E5F0340CF58374C808
:10042000F0EF75F015A42459F582E4340DF58374CA
:1004300003F075F015EFA42459F582E5F0340CF5BE
:10044000837450F075F015EFA424D7F582E5F034ED
:100450000CF58374A0F0EF75F015A42458F582E430
:10046000340DF5837403F075F015EFA42458F5826C
:10047000E5F0340CF5837478F075F015EFA424D60C
:10048000F582E5F0340CF5837478F0EF75F015A47F
:100490002457F582E4340DF5837403F075F015EFFD
:1004A000A42457F582E5F0340CF58374A0F075F0C0
:1004B00015EFA424D5F582E5F0340CF5837450F0E3
:1004C000EF75F015A42456F582E4340DF58374031A
:1004D000F075F015EFA42456F582E5F0340CF583A1
:1004E00074C8F075F015EFA424D4F582E5F0340C4F
:1004F000F5837428F0EF75F015A42455F582E434E3
:100500000DF5837403F075F015EFA42455F582E51D
:10051000F0340CF58374EFF075F015EFA424D3F5E7
:1005200082E5F0340CF5837401F0EF75F015A42426
:1005300054F582E4340DF5837403F0900F09E00460
:10054000F00203BBE4900F09F0900F09E0FFC394A1
:100550007E503B900DEAE0FE74D72FF582E4340B19
:10056000F583EEF0900DE9E0FE74552FF582E4344A
:100570000CF583EEF0900DE8E0FE74D32FF582E4E5
:10058000340CF583EEF0900F09E004F080BB900D81
:100590005474C8F0A374BEF0A374B4F0A374AAF0AA
:1005A000A374A0F0A37496F0A3748CF0A37482F0EB
:1005B000A37478F0A3746EF0A37464F0A3745AF07B
:1005C000A37450F0A37446F0A3743CF0A37432F00B
:1005D000A37428F0A3741EF0A37414F0A3740AF09B
:1005E000A37401F020090302080AE4900F09F090B7
:1005F0000F09E0FFC3940A5019EF905CAA93FD7CA9
:10060000007B017A007F3212738A900F09E004F0B8
:1006100080DDE4900F09F0900F09E0FFC3940950CA
:1006200019EF905CB493FD7C007B017A007F64122B
:10063000738A900F09E004F080DDE4900F09F090D8
:100640000F09E0FFC394095019EF905CBD93FD7C46
:10065000007B017A007F9612738A900F09E004F004
:1006600080DDE4900F09F0900F09E0FFC39407507C
:1006700019EF905CC693FD7C007B017A007FC81265
:10068000738A900F09E004F080DDE4900F09F09088
:100690000F09E0FFC394035011EF905CCD7F0A1265
:1006A0007382900F09E004F080E5E4900F09F09068
:1006B0000F09E0FFC394035011EF905CD07F3C1210
:1006C0007382900F09E004F080E5E4900F09F09048
:1006D0000F09E0FFC394045019EF905CD393FD7CA5
:1006E000007B027A007F6E12738A900F09E004F09B
:1006F00080DDE4900F09F0900F09E0FFC3940750EC
:1007000019EF905CD793FD7C007B027A007FA012EA
:10071000738A900F09E004F080DDE4900F09F090F7
:100720000F09E0FFC394045019EF905CDE93FD7C49
:10073000007B027A007FD212738A900F09E004F0E6
:1007400080DDE4900F09F0900F09E0FFC3940D5095
:1007500019EF905CE293FD7C007B037A007F0A1224
:10076000738A900F09E004F080DDE4900F09F090A7
:100770000F09E0FFC3940B5019EF905CEF93FD7CE1
:10078000007B037A007F3C12738A900F09E004F02B
:1007900080DDE4900F09F0900F09E0FFC3940B5047
:1007A00019EF905CFA93FD7C007B037A007F6E1258
:1007B000738A900F09E004F080DDE4900F09F09057
:1007C0000F09E0FFC3940C5019EF905D0593FD7C79
:1007D000007B037A007FA012738A900F09E004F077
:1007E00080DDE4900F09F0900F09E0FFC3941850EA
:1007F00019EF905D1193FD7C007B037A007FD2128C
:10080000738A900F09E004F080DD200A030208E1FA
:10081000E51E64087067900F09F0900F09E0FFC3B0
:10082000941540030208E174552FF582E4340CF569
:100830008374F0F0746A2FF582E4340CF58374C885
:10084000F0747F2FF582E4340CF58374A0F0749477
:100850002FF582E4340CF5837478F074A92FF582B7
:10086000E4340CF5837450F074BE2FF582E4340C3C
:10087000F5837428F0900F09E004F0809DE4900F58
:1008800009F0900F09E0FFC3947E503B900DEAE021
:10089000FE74D72FF582E4340BF583EEF0900DE96A
:1008A000E0FE74552FF582E4340CF583EEF0900DE4
:1008B000E8E0FE74D32FF582E4340CF583EEF0907B
:1008C0000F09E004F080BB900D5474F0F0A374C8DD
:1008D000F0A374A0F0A37478F0A37450F0A374286C
:1008E000F0300B5EE4900F09F0900F09E0FEC39426
:1008F0002A504FE0FD905C8093FF900F0BF0ED903D
:100900005C5693900F0CF0FBEE905C2C93F9FD7C01
:10091000007A00126E28900F0BE0FFE92415FDEC21
:1009200033FCA3E0FB126E28900F0BE0FFE9242AB2
:10093000FDE433FCA3E0FB126E28900F09E004F005
:1009400080A7300D5BE4900F09F0900F0AE0FF12D2
:100950008A28900F0DEEF0A3EFF0900F0DE0FEA3AC
:10096000E0FF7C007D50125108900F0DECF0A3EDDC
:10097000F0900F0DE0FAA3E0FB7C007D03FFAE02D8
:10098000125108AF05900F0AEFF0900F09E0FD7CBF
:1009900000126E28900F09E004F0E0C3947E40AA94
:1009A000200C03020C29E51E64086003020B8E90E4
:1009B0000C557450F0A37464F0A37478F0A3748C95
:1009C000F0A374A0F0A374B4F0A374C8F0A374DC13
:1009D000F0A3F0A374C8F0A374B4F0A374A0F0A3C0
:1009E000748CF0A37478F0A37464F0A37450F0A333
:1009F000743CF0A37428F0A37414F0A37401F0A362
:100A0000F0A37464F0A37478F0A3748CF0A374A0C2
:100A1000F0A374B4F0A374C8F0A374DCF0A374F072
:100A2000F0A3F0A374DCF0A374C8F0A374B4F0A333
:100A300074A0F0A3748CF0A37478F0A37464F0A392
:100A40007450F0A3743CF0A37428F0A3743CF0A39A
:100A50007450F0A37478F0A3748CF0A374A0F0A386
:100A600074B4F0A374C8F0A374DCF0A374F0F0A322
:100A7000F0A3F0A374DCF0A374C8F0A374B4F0A3E3
:100A800074A0F0A3748CF0A37478F0A37464F0A342
:100A90007450F0A3743CF0A37428F0A37414F0A372
:100AA0007401F0A37478F0A3748CF0A374A0F0A385
:100AB00074B4F0A374C8F0A374DCF0A374F0F0A3D2
:100AC000F0A374DCF0A374C8F0A374B4F0A374A012
:100AD000F0A3748CF0A37478F0A37464F0A3745042
:100AE000F0A3743CF0A37428F0A37414F0A3740171
:100AF000F0A3F0A37478F0A3748CF0A374A0F0A317
:100B000074B4F0A374C8F0A374DCF0A3F0A3F0A352
:100B100074C8F0A374B4F0A374A0F0A3748CF0A311
:100B20007478F0A37464F0A37450F0A37428F0A355
:100B30007414F0A3740AF0A37401F0A3F0A3F0A35B
:100B40007464F0A37478F0A3748CF0A374A0F0A381
:100B500074B4F0A374C8F0A3F0A3F0A374B4F0A32A
:100B600074A0F0A3748CF0A37478F0A37464F0A361
:100B70007450F0A3743CF0A37428F0A37414F0A391
:100B8000740AF0A37401F0A3F0A3F0020C29E4901E
:100B90000F09F0900F09E0FFC3947E503B900DEADF
:100BA000E0FE74D72FF582E4340BF583EEF0900D60
:100BB000E9E0FE74552FF582E4340CF583EEF090F5
:100BC0000DE8E0FE74D32FF582E4340CF583EEF0EB
:100BD000900F09E004F080BB900D547428F0A374CA
:100BE0003CF0A37450F0A37464F0A37478F0A37481
:100BF0008CF0A374A0F0A374B4F0A374C8F0A3F0B5
:100C0000A3F0A374B4F0A374A0F0A3748CF0A37445
:100C100078F0A37464F0A37450F0A3743CF0A37450
:100C200028F0A37414F0E4A3F0900C2CE0900C379F
:100C3000F0900CAAE0900CB5F0900D28E0900D33E8
:100C4000F0900DA9E0900DB4F0900E27E0900E32D8
:100C5000F022900F08EFF0E53264016003020D3BD3
:100C6000E5316401706CE52E452D701A900BD204AD
:100C7000F0A374F8F07F631270D5900BD074C6F0B7
:100C8000A3E4F00210A1D3E52E9403E52D940050C7
:100C9000030210A1900BD0E0FEA3E0FF900F08E04C
:100CA000FD12847BE0FF900BD2E0FCA3E0FD74F822
:100CB0009DFD74019CFC74D52DF58274073CF58371
:100CC000EFF0900BD1E004F07060900BD0E004F0F6
:100CD0008058C3E52E9402E52D940050030210A124
:100CE000900BD2E07002A3E070030210A1900BD031
:100CF000E0FEA3E0FF900F08E0FD12847BE0FF9090
:100D00000BD2E0FCA3E0FDC374F89DFD74019CFCD4
:100D100074D52DF58274073CF583EFF0900BD1E08C
:100D200004F07006900BD0E004F0900BD3E024FFA9
:100D3000F0900BD2E034FFF00210A1E532640260C3
:100D400003020E06E52E452D7006127CD00210A17E
:100D5000E52E6404452D7010900F08E0FF128B996A
:100D6000900F8DEFF00210A1E52E6406452D700E58
:100D7000900F08E0FFC374059FF51D0210A1E52E3A
:100D80006407452D7009900F08E0F51F0210A1E5DA
:100D90002E6408452D700DF51E900F08E0900DEAA9
:100DA000F00210A1E52E6409452D700B900F08E0AC
:100DB000900DE9F00210A1E52E640A452D700B900C
:100DC0000F08E0900DE8F00210A1E52E640B452D10
:100DD0007013900F08E0B40106751E080210A1E41C
:100DE000F51E0210A1E52E640C452D7009900F0828
:100DF000E0F5330210A1E52E643C452D600302109E
:100E0000A1D2560210A1E53264047074E531640188
:100E1000703DE52E452D7016900BD27407F0A3742B
:100E200080F0E4900A54F0900A53F00210A1D3E548
:100E30002E9403E52D940050030210A1900BD2E0F4
:100E40007002A3E070030210A11281A30210A1C3DB
:100E5000E52E9402E52D940050030210A1900BD2D0
:100E6000E07002A3E070030210A11281A3900BD2E4
:100E7000E07002A3E060030210A1123B430210A144
:100E8000E53264036003020F7AE5316401707CE5AA
:100E90002E452D6029E52E6404452D7021900F0804
:100EA000E0900FA6F0900F8D7413F0125F1DE49088
:100EB0000A53F0A3F0900BD204F0A3747AF0D3E5B8
:100EC0002E9404E52D940050030210A1900BD2E063
:100ED0007002A3E070030210A1900BD3E024FFF096
:100EE000900BD2E034FFF0900F08E0FFC007900AAB
:100EF00053E0FF7E00128B14900A54E075F07EA43C
:100F000024D7F582E5F0340B02101FC3E52E9402BE
:100F1000E52D940050030210A1900BD2E07002A3C3
:100F2000E070030210A1900BD3E024FFF0900BD2ED
:100F3000E034FFF0900F08E0FFC007900A53E0FF95
:100F40007E00128B14900A54E075F07EA424D7F52D
:100F500082E5F0340BF583E5822FF582E43583F5E5
:100F600083D0E0F012001E900BD2E07002A3E0608C
:100F7000030210A11276760210A1E5326406600326
:100F80000210A1E53164016003021033E52E452D06
:100F90007043900BD204F0A3747AF0E4900A54F0FA
:100FA000900A53F0C22DC223C216C22CC20AC20933
:100FB000C22EC220C20CC217C21EC21FC221C21D35
:100FC000C227C21AC219C218C226C211C210C20D4B
:100FD000C20B0210A1D3E52E9403E52D940050031B
:100FE0000210A1900BD2E07002A3E070030210A1E6
:100FF000900BD3E024FFF0900BD2E034FFF0900F81
:1010000008E0FFC007900A53E0FF7E00128B1490A7
:101010000A54E075F07EA42456F582E5F0340AF512
:1010200083E5822FF582E43583F583D0E0F012006A
:101030001E806EE531D394014067E52E9402E52DC4
:101040009400405D900BD2E07002A3E06053900BDF
:10105000D3E024FFF0900BD2E034FFF0900F08E0D3
:10106000FFC007900A53E0FF7E00128B14900A54D1
:10107000E075F07EA42456F582E5F0340AF583E5A8
:10108000822FF582E43583F583D0E0F012001E90C4
:101090000BD2E07002A3E07008D258900A5574C8D1
:1010A000F0052EE52E7002052D227F631270D5907B
:1010B0000BD074C6F0A3E4F0900EE9F0A3F0900E0C
:1010C000E9E0FCA3E0FDC394F8EC94015031900BEF
:1010D000D0E0FEA3E0FF74D52DF58274073C1284A6
:1010E00077900BD1E004F07006900BD0E004F09004
:1010F0000EEAE004F070C7900EE9E004F080BF2231
:101100000000000000000000900EF5E513F0FF7EE7
:1011100000128B14900EECEFF0900EF5E075F004D9
:10112000A4FFAEF0E42FF58274C63EF583E49390FD
:101130000EF1F074012FF58274C63EF583E49390AE
:101140000EF2F074022FF58274C63EF583E493909C
:101150000EF3F074032FF58274C63EF583E493908A
:101160000EF4F020340302135C900EECE0FFB41692
:10117000047E0180027E00EFB415047F0180027FAF
:1011800000EF4EFF900EECE0FEB417047D018002EC
:101190007D00ED4FFFEEB418047E0180027E00EE6C
:1011A0004FFF900EECE0FEB419047D0180027D003B
:1011B000ED4FFFEEB41A047E0180027E00EE4FFF79
:1011C000900EECE0FEB41B047D0180027D00ED4F2B
:1011D000FFEEB41C047E0180027E00EE4FFF900EF5
:1011E000ECE0FEB41D047D0180027D00ED4FFFEEBA
:1011F000B41E047E0180027E00EE4FFF900EECE0F4
:10120000FEB41F047D0180027D00ED4FFFEEB4208F
:10121000047E0180027E00EE4FFF900EECE0FEB4F3
:1012200021047D0180027D00ED4F600302133BEE3F
:10123000B440047F0180027F00900EECE0FEB44CCD
:10124000047D0180027D00ED4FFFEEB441047E017C
:1012500080027E00EE4FFF900EECE0FEB420047D95
:101260000180027D00ED4FFFEEB421047E0180027B
:101270007E00EE4FFF900EECE0FEB435047D018061
:10128000027D00ED4FFFEEB436047E0180027E0049
:10129000EE4FFF900EECE0FEB437047D0180027D3E
:1012A00000ED4F600302133BEEB44A047F0180025D
:1012B0007F00900EECE0FEB46E047D0180027D00A4
:1012C000ED4FFFEEB449047E0180027E00EE4FFF39
:1012D000900EECE0FEB45D047D0180027D00ED4FD8
:1012E000FFEEB44B047E0180027E00EE4F60028070
:1012F0004A900EECE0FFB42C047E0180027E00EFE9
:10130000B42B047F0180027F00EF4EFF900EECE0D3
:10131000FEB42D047D0180027D00ED4FFFEEB4345C
:10132000047E0180027E00EE4FFF900EECE0B46A76
:10133000047E0180027E00EE4F6011E4900EF4F016
:10134000900EF3F0900EF2F0900EF1F0900EECE0B3
:10135000B41509900EF37435F0E4A3F0E5146003BE
:1013600002140B203403021738900EECE0FFB41681
:1013700003021576EFB41703021582EFB4180302C7
:10138000158EEFB4190302159AEFB41A030215A6CD
:10139000EFB41B030215B2EFB41C030215BEEFB489
:1013A0001D030215CAEFB41E030215D6EFB41F03C6
:1013B0000215E2EFB420030215EEEFB4210302158B
:1013C000FEEFB422030216CCEFB430030216D7EFBF
:1013D000B431030216E2EFB432030216EDEFB44566
:1013E000030216F8EFB44603021703EFB4470302F3
:1013F000170EEFB45A030216CCEFB45B03021724A6
:10140000EF645C600302173802172FE51464016073
:101410000302155F3034030214B5900EECE0FFB404
:101420001603021576EFB41703021582EFB4180302
:1014300002158EEFB4190302159AEFB41A030215C0
:10144000A6EFB41B030215B2EFB41C030215BEEFE6
:10145000B41D030215CAEFB41E030215D6EFB41F64
:10146000030215E2EFB420030215EEEFB4210302EC
:1014700015FEEFB430030216D7EFB431030216E2C3
:10148000EFB432030216EDEFB445030216F8EFB4E1
:101490004603021703EFB4470302170EEFB45A03D3
:1014A0000216CCEFB45B03021724EF645C60030206
:1014B000173802172F900EECE0B4160930380302EB
:1014C0001615021610900EECE0B41709303803021E
:1014D0001629021624900EECE0B4180930380302E5
:1014E000163D021638900EECE0B4190930380302AC
:1014F0001654021650900EECE0B41A09303803026C
:10150000173802166A900EECE0B41B09303803025B
:10151000173802167B900EECE0B41C03021686907E
:101520000EECE0B41D03021691900EECE0B41E0325
:1015300002169C900EECE0B41F030216A7900EEC6E
:10154000E0B420030216B2900EECE0B421030216C0
:10155000BD900EECE0642260030217380216CCE561
:101560001464026003021738303403021606900E2A
:10157000ECE0FFB41608900EF3743A021734EFB49F
:101580001708900EF3743B021734EFB41808900E4E
:10159000F3743C021734EFB41908900EF3743D0253
:1015A0001734EFB41A08900EF3743E021734EFB4F8
:1015B0001B08900EF3743F021734EFB41C08900E12
:1015C000F37440021734EFB41D08900EF374410217
:1015D0001734EFB41E08900EF37442021734EFB4C0
:1015E0001F08900EF37443021734EFB42008900ED6
:1015F000F37444021734EF64216003021738900E2D
:10160000F37445021734900EECE0B4160D20380543
:101610007F0A0216BF7F130216BF900EECE0B417CC
:101620000D2038057F0C0216BF7F120216BF900EE8
:10163000ECE0B418112038057F080216BF900EF3B5
:10164000743CF0021738900EECE0B4191020380406
:101650007F09806B900EF3743DF0021738900EEC0A
:10166000E0B41A0A3038030217387F078051900E11
:10167000ECE0B41B0A3038030217387F0280409038
:101680000EECE0B41C047F018035900EECE0B41D3C
:10169000047F03802A900EECE0B41E04E4FF801F58
:1016A000900EECE0B41F047F048014900EECE0B4C4
:1016B00020047F068009900EECE0B421077F05121C
:1016C00085588074900EECE0FFB42207900EF374FE
:1016D0004C8061EFB43007900EF374468056EFB43F
:1016E0003107900EF37447804BEFB43207900EF33E
:1016F00074488040EFB44507900EF374498035EF8D
:10170000B44607900EF3744A802AEFB44707900E50
:10171000F3744B801FEFB45A07900EF3744C80148F
:10172000EFB45B07900EF3744D8009EFB45C099041
:101730000EF3744EF0E4A3F0304046303403021749
:10174000DE900EECE0FFB47108900EF374500217B7
:10175000DAEFB47207900EF37451807EEFB4730722
:10176000900EF3744F8073EF645E70727879E65474
:1017700010FF786CE654104F7064900EF374528032
:101780005930345A900EECE0FDB47112900EF3749F
:1017900050F0E4A3F0900EF2E054BFF08040EDB4BE
:1017A0007207900EF374518031900EECE0FDB4732B
:1017B00012900EF3744FF0E4A3F0900EF2E054EFA9
:1017C000F0801BEDB45E177879E65410FF786CE674
:1017D00054104F7009900EF37452F0E4A3F0303EB1
:1017E0000F20400C900EECE0B47205E4900EF3F084
:1017F000900EF1E0FD60030218F1A3E0784046F698
:10180000303404E654F6F63040092034067840E6D9
:1018100054AFF6303E092038067840E65477F6900B
:101820000EF3E0FF600C127DEEE51A7005E0FF128A
:1018300082B8900EF4E0FF600C127DEEE51A7005A0
:10184000E0FF1282B8E51A64AA6003021A093004A4
:1018500067900EF3E0602C64B06028E0FC24FCFF8D
:10186000E434FFFEEF7803CEC313CE13D8F9900E05
:10187000EAF0EC24FC127FA0900EEAE02482F8E566
:101880001646F6900EF4E07003021A0964B0700375
:10189000021A09E0FC24FCFFE434FFFEEF7803CEDB
:1018A000C313CE13D8F9900EEAF0EC24FC127FA0FB
:1018B000900EEAE024828033900EF3E0FF60126421
:1018C000B0600E127F95900EEAE02483F8E516468C
:1018D000F6900EF4E0FF7003021A0964B070030280
:1018E0001A09127F95900EEAE02483F8E51646F671
:1018F00022EDB4010C900EF3E07893F6A3E008F625
:1019000022900EF1E064026003021A09900EF3E0E7
:10191000B40466900EED1251FC00000001900EED33
:10192000E0FCA3E0FDA3E0FEA3E0FF900EF2E0F9EF
:10193000F81251DD900EED1251F0900010E0FCA372
:10194000E0FDA3E0FEA3E0FF900EEDE0F8A3E0F9D8
:10195000A3E0FAA3E0FBEF4BFFEE4AFEED49FDECFE
:1019600048FC9000101251F0900EF2E02438F582FD
:10197000E43400F5837401F022900EF3E06401601A
:1019800003021A09900EED1251FC00000001900EA6
:10199000EDE0FCA3E0FDA3E0FEA3E0FF900EF2E08B
:1019A000F9F81251DD900EED1251F074CD2513F5BA
:1019B00082E43409F583E0705074CD2513F582E498
:1019C0003409F583E513F0900010E0FCA3E0FDA3DB
:1019D000E0FEA3E0FF900EEDE0F8A3E0F9A3E0FA4B
:1019E000A3E0FBEF4BFFEE4AFEED49FDEC48FC9017
:1019F00000101251F0900EF4E0FF900EF2E0243847
:101A0000F582E43400F583EFF022E4900EE8F0A3D1
:101A10001251FC00000001E4900EE7F0E4900EED9E
:101A2000F0900EE9E0FCA3E0FDA3E0FEA3E0FF9050
:101A30000010E0F8A3E0F9A3E0FAA3E05FFFEA5E9C
:101A4000FEE95DFDE85C4D4E4F7003021D37900EC0
:101A5000E7E0FF244BF582E43400F583E075F00302
:101A6000A4900EE8F0E0FE75F0C0EFA42457F582D4
:101A7000E5F03400F583E5822EF582E43583F583C5
:101A8000E07003021CA0900EE9E0FCA3E0FDA3E0DF
:101A9000FEA3E0FF900043E0F8A3E0F9A3E0FAA37F
:101AA000E05FFFEA5EFEE95DFDE85CFCE4FBFAF95D
:101AB000F8C31251CC7060900EE8E0FE900EE7E0A3
:101AC000FD75F0C0A42455F582E5F03400F583E5FA
:101AD000822EF582E43583F583E0FF75F0C0EDA436
:101AE0002456F582E5F03400F583E5822EF582E494
:101AF0003583F583E0FD7C00127791900049E0FE8C
:101B0000A3E0FF900EE7E025E02424F582E4340012
:101B1000F583EEF0A3EFF0900EE8E0FE900EE7E024
:101B2000FD75F0C0A42457F582E5F03400F583E597
:101B3000822EF582E43583F583E0FF75F0C0EDA4D5
:101B40002455F582E5F03400F583E5822EF582E434
:101B50003583F583E0FD7C00900EE7E075F0C0A4CE
:101B60002456F582E5F03400F583E5822EF582E413
:101B70003583F583E0FB7A00126BE8900EE7E0FF17
:101B800025E02424F582E43400F583E0FCA3E0D3CF
:101B90009400EC94004013EF25E02424F582E43413
:101BA00000F58374FFF5F0125193900EE7E0FF25E6
:101BB000E02424F582E43400F583E0FCA3E04C60EB
:101BC00003021D37744B2FF582E43400F583E004E3
:101BD000F0900043E0F8A3E0F9A3E0FAA3E0FB9063
:101BE0000EE9E0FCA3E0FDA3E0FEA3E0FF1251BF7D
:101BF000EB5FFFEA5EFEE95DFDE85CFC90004312EE
:101C000051F0900EE8E0C394BD5003021D37900ED2
:101C1000E7E0244BF582E43400F583E4F0900043E0
:101C2000E0F8A3E0F9A3E0FAA3E0FB900EE9E0FC02
:101C3000A3E0FDA3E0FEA3E0FF1251BFEB5FFFEACC
:101C40005EFEE95DFDE85CFC9000431251F0900EF1
:101C5000E7E0FF2438F582E43400F583E014F07403
:101C6000382FF582E43400F583E07031900010E005
:101C7000F8A3E0F9A3E0FAA3E0FB900EE9E0FCA3EF
:101C8000E0FDA3E0FEA3E0FF1251BFEB5FFFEA5EC1
:101C9000FEE95DFDE85CFC9000101251F0021D2F82
:101CA000900EE7E0244BF582E43400F583E4F090F5
:101CB0000043E0F8A3E0F9A3E0FAA3E0FB900EE90B
:101CC000E0FCA3E0FDA3E0FEA3E0FF1251BFEB5F49
:101CD000FFEA5EFEE95DFDE85CFC9000431251F016
:101CE000900EE7E0FF2438F582E43400F583E01439
:101CF000F074382FF582E43400F583E07031900001
:101D000010E0F8A3E0F9A3E0FAA3E0FB900EE9E00D
:101D1000FCA3E0FDA3E0FEA3E0FF1251BFEB5FFFD9
:101D2000EA5EFEE95DFDE85CFC9000101251F012E5
:101D30008B52E4900047F0900EE9E0FCA3E0FDA395
:101D4000E0FEA3E0FF78011251DD900EE91251F0A0
:101D5000900EE7E004F0E0C3940A5003021A1C90CE
:101D60000010E0FCA3E0FDA3E0FEA3E0FFEC4D4E7D
:101D70004F7027900EE7F0900EE7E0FFC3941050ED
:101D80001474142FF582E43400F583E4F0900EE728
:101D9000E004F080E2E4900047F022900F74E0FF4E
:101DA000C39400400DEFD394145007E4900EF1F06B
:101DB0008062EFC39415400EEFD394295008900E23
:101DC000F17401F0804EEFC3942A400EEFD3943E9D
:101DD0005008900EF17402F0803AEFC3943F400E29
:101DE000EFD394535008900EF17403F08026EFC3A4
:101DF0009454400EEFD394685008900EF17404F0A0
:101E00008012EFC39469400CEFD3947D5006900E7E
:101E1000F17405F0900F75E064017024900F74E088
:101E2000900EEFF0A3F0FF7E00A3E0FD7C001252C5
:101E30003F900EF0E0FF7E00A3E0FD7C0012523FD9
:101E4000900F75E0FF900F74E0FEC39FFD900EEFC2
:101E5000F0EE2FA3F0EDFF7E00A3E0FD7C00125218
:101E60003F900EF0E0FF7E00A3E0FD7C0012523FA9
:101E7000A21E721D721972174003022110900F7575
:101E8000E0FF9401407A900F74E09F24EDFF900EE4
:101E9000EFF07E00900EF1E024FFFDE434FFFC1231
:101EA000523F900F75E0FF900F74E02F24E9FF90F0
:101EB0000EF0F07E00A3E024FFFDE434FFFC12529C
:101EC0003F900F75E0FF900F74E0C39F2417FF90C1
:101ED0000EEFF07E00900EF1E02401FDE433FC12E1
:101EE000523F900F75E0FF900F74E02F2413FF9086
:101EF0000EF0F07E00A3E02401FDE433FC12523F1B
:101F0000900F75E0FFD39402407A900F74E09F2405
:101F1000D9FF900EEFF07E00900EF1E024FEFDE47C
:101F200034FFFC12523F900F75E0FF900F74E02FCA
:101F300024D3FF900EF0F07E00A3E024FEFDE434F5
:101F4000FFFC12523F900F75E0FF900F74E0C39FAB
:101F5000242DFF900EEFF07E00900EF1E02402FDA4
:101F6000E433FC12523F900F75E0FF900F74E02FA6
:101F70002427FF900EF0F07E00A3E02402FDE4335E
:101F8000FC12523F900F75E0FFD39403407A900FFC
:101F900074E09F24C5FF900EEFF07E00900EF1E0FC
:101FA00024FDFDE434FFFC12523F900F75E0FF90DA
:101FB0000F74E02F24BDFF900EF0F07E00A3E0240C
:101FC000FDFDE434FFFC12523F900F75E0FF900FCF
:101FD00074E0C39F2443FF900EEFF07E00900EF15B
:101FE000E02403FDE433FC12523F900F75E0FF90B4
:101FF0000F74E02F243BFF900EF0F07E00A3E0244E
:1020000003FDE433FC12523F900F75E0FFD39404BC
:10201000407A900F74E09F24B1FF900EEFF07E00A5
:10202000900EF1E024FCFDE434FFFC12523F900FCF
:1020300075E0FF900F74E02F24A7FF900EF0F07E64
:1020400000A3E024FCFDE434FFFC12523F900F7526
:10205000E0FF900F74E0C39F2459FF900EEFF07ED5
:1020600000900EF1E02404FDE433FC12523F900F87
:1020700075E0FF900F74E02F244FFF900EF0F07E7C
:1020800000A3E02404FDE433FC12523F900F75E0FE
:10209000FFD39405407A900F74E09F249DFF900E2B
:1020A000EFF07E00900EF1E024FBFDE434FFFC1223
:1020B000523F900F75E0FF900F74E02F2491FF9036
:1020C0000EF0F07E00A3E024FBFDE434FFFC12528E
:1020D0003F900F75E0FF900F74E0C39F246FFF9057
:1020E0000EEFF07E00900EF1E02405FDE433FC12CB
:1020F000523F900F75E0FF900F74E02F2463FF9024
:102100000EF0F07E00A3E02405FDE433FC12523F04
:1021100022A22E72207209720A720B720C720D408A
:1021200003022478E51D7003FD8024E51DB401043D
:102130007D05801BE51DB402047D0A8012E51DB4F7
:1021400003047D0F8009E51DC3940440027D143013
:10215000200474052DFDA20A722E720C5032E51E69
:102160006408602CE51D70047D018024E51DB40128
:10217000047D03801BE51DB402047D058012E51D6E
:10218000B403047D078009E51DC3940440027D0962
:10219000900FA3E004F0E0C39D5003022478E49084
:1021A0000FA3F0A20A722E720C40030223F1E51E67
:1021B000640870030223F1A20C722E40030222CCA9
:1021C000E4FE74D22EF582E4340DF583E0702C74B5
:1021D000542EF582E4340DF583E004F074542EF5AA
:1021E00082E4340DF583E0D394FE404674D22EF59C
:1021F00082E4340DF5837401F0803774542EF58237
:10220000E4340DF583E0D39414400D74542EF5821C
:10221000E4340DF583E014F074542EF582E4340DAB
:10222000F583E0B4140C74D22EF582E4340DF583FA
:10223000E4F074542EF582E4340DF583E0FF746904
:102240002EF582E4340EF583EFF074542EF582E41B
:10225000340DF583E0FF747E2EF582E4340EF583B1
:10226000EFF074542EF582E4340DF583E0FF74939F
:102270002EF582E4340EF583EFF074542EF582E4EB
:10228000340DF583E0FF74A82EF582E4340EF58357
:10229000EFF074542EF582E4340DF583E0FF74BD45
:1022A0002EF582E4340EF583EFF074542EF582E4BB
:1022B000340DF583E0FF74D22EF582E4340EF583FD
:1022C000EFF00EEE641560030221C222200A030221
:1022D0002478E4FE74D22EF582E4340DF583E070A8
:1022E0002C74542EF582E4340DF583E004F074541C
:1022F0002EF582E4340DF583E0D394FE404674D28B
:102300002EF582E4340DF5837401F0803774542E79
:10231000F582E4340DF583E0D39414400D74542E0B
:10232000F582E4340DF583E014F074542EF582E464
:10233000340DF583E0B4140C74D22EF582E4340D20
:10234000F583E4F0E4FDEE701674542EF582E43467
:102350000DF583E0FF74692DF582E4340E807BEE89
:10236000B401152454F582E4340DF583E0FF747E46
:102370002DF582E4340E8062EEB402152454F58209
:10238000E4340DF583E0FF74932DF582E4340E8080
:1023900049EEB403152454F582E4340DF583E0FFCF
:1023A00074A82DF582E4340E8030EEB40415245464
:1023B000F582E4340DF583E0FF74BD2DF582E4343D
:1023C0000E8017EEB405172454F582E4340DF5831E
:1023D000E0FF74D22DF582E4340EF583EFF00DEDBD
:1023E000641060030223460EEE640660030222D4EA
:1023F00022E4FE74D72EF582E4340BF583E0900DD1
:1024000053F074552EF582E4340CF583E0900D52B0
:10241000F074D32EF582E4340CF583E0900DE712CE
:102420006CAA74542EF582E4340DF583EF126CAA75
:1024300074542EF582E4340DF583EFF0900D53E0E3
:10244000FF74D72EF582E4340BF583EFF0900D5234
:10245000E0FF74552EF582E4340CF583EFF0900D17
:10246000E7E0FF74D32EF582E4340CF583EFF00E31
:10247000EE647E60030223F322900F42E0FD6401CC
:10248000703F900F577436F0A3746AF0900F50E4C9
:10249000F0A37412F0900F46E0FE900F45E0FBEBC6
:1024A000FF900F4EEEF0A3EFF0C39412EE940050A5
:1024B00005900F4E8003900F50E0FEA3E0FF02272F
:1024C00094ED6402703F900F577436F0A3747CF063
:1024D000900F50E4F0A3743BF0900F46E0FE900F95
:1024E00045E0FDEDFF900F4EEEF0A3EFF0C3943BFF
:1024F000EE94005005900F4E8003900F50E0FEA325
:10250000E0FF022794900F42E0FD6403600302267F
:1025100070900F41E0FC703F900F577435F0A3743A
:10252000A6F0900F50E4F0A37404F0900F46E0FE84
:10253000900F45E0FBEBFF900F4EEEF0A3EFF0C3E2
:102540009404EE94005005900F4E8003900F50E0DD
:10255000FEA3E0FF022794EC6401703F900F5774D4
:1025600035F0A37473F0900F50E4F0A37418F0905A
:102570000F46E0FE900F45E0FBEBFF900F4EEEF0B4
:10258000A3EFF0C39418EE94005005900F4E800313
:10259000900F50E0FEA3E0FF022794900F41E0FC73
:1025A0006402703F900F577435F0A37447F0900F9A
:1025B00050E4F0A3742CF0900F46E0FE900F45E03D
:1025C000FBEBFF900F4EEEF0A3EFF0C3942CEE94D4
:1025D000005005900F4E8003900F50E0FEA3E0FFE7
:1025E000022794EC6403703F900F577435F0A37486
:1025F0008BF0900F50E4F0A3740AF0900F46E0FEC9
:10260000900F45E0FBEBFF900F4EEEF0A3EFF0C311
:10261000940AEE94005005900F4E8003900F50E006
:10262000FEA3E0FF022794900F41E0F4703F900F6B
:10263000577435F0A37495F0900F50E4F0A3741123
:10264000F0900F46E0FE900F45E0FBEBFF900F4E41
:10265000EEF0A3EFF0C39411EE94005005900F4EEE
:102660008003900F50E0FEA3E0FF0227940227A012
:10267000ED64226003022705900F43E0FD703F9058
:102680000F577435F0A374AAF0900F50E4F0A374C0
:1026900043F0900F46E0FE900F45E0FBEBFF900FFC
:1026A0004EEEF0A3EFF0C39443EE94005005900F6C
:1026B0004E8003900F50E0FEA3E0FF022794ED64EC
:1026C00001703F900F577435F0A374EDF0900F50E8
:1026D000E4F0A3747DF0900F46E0FE900F45E0FD1E
:1026E000EDFF900F4EEEF0A3EFF0C3947DEE94005B
:1026F0005005900F4E8003900F50E0FEA3E0FF02C4
:1027000027940227A0900F42E0642160030227A0D3
:10271000A3E0FD703E900F577436F0A374B7F090AD
:102720000F50E4F0A37409F0900F46E0FE900F45BF
:10273000E0FBEBFF900F4EEEF0A3EFF0C39409EE39
:1027400094005005900F4E8003900F50E0FEA3E0E0
:10275000FF8041ED64017046900F577436F0A3740A
:10276000C0F0900F50E4F0A37409F0900F46E0FE23
:10277000900F45E0FDEDFF900F4EEEF0A3EFF0C39C
:102780009409EE94005005900F4E8003900F50E096
:10279000FEA3E0FF900F50EEF0A3EFF08005800065
:1027A0000230F912789F5393FE43970422E4F51206
:1027B000F509F511E50AB404057509158076E50AF1
:1027C000B405057509158079E50AB406057509157E
:1027D000807CE50AB4070575092A8058E50AB40823
:1027E0000575092A805BE50AB4090575092A805E2A
:1027F000E50AB40A0575093F803AE50AB40B057588
:10280000093F803DE50AB40C0575093F8040E50AA3
:10281000B40D05750954801CE50AB40E05750954FC
:10282000801FE50AB40F057509548022E50AB4102B
:1028300008750969E4F5128018E50AB411087509EC
:1028400069751201800BE50AB412067509697512E3
:1028500002300406900F90E530F0850911E5092457
:1028600015FFE433FEC3E5119FEE6480F874809891
:102870004003022A8AC3E5119509F510E4F50BF52A
:102880000C302212740D2512F8E6851FF0A485F095
:102890000BF50C022A82303B47900F88E0700DF553
:1028A0000BF50CE5126003022A82802F900F88E05E
:1028B000B40110E4F50BF50CE51264016003022A83
:1028C000828018900F88E064026003022A82F50B70
:1028D000F50CE51264026003022A82900F89800ED3
:1028E000E511B46E0CA228721C5006900F81E08096
:1028F00012E511B47613200410E508600C740D2560
:1029000012F8E6FF7D0A022A7BE511B43F09900F19
:1029100090E030E102807BE511B42B173001149078
:102920000F89E0FF64AA600BEFD394C85003022A1A
:1029300082805FE511B42C17300214900F89E0FFFC
:1029400064AA600BEFD394C85003022A828043E547
:1029500011B42D17300314900F89E0FF64AA600BA7
:10296000EFD394C85003022A828027E511B43417AC
:10297000300014900F89E0FF64AA600BEFD394C875
:102980005003022A82800BE511B46A0F303E0C20FE
:102990003809750B09750CF6022A8230160C900F57
:1029A0009BE0FF7003022A828075A22C721F721DA9
:1029B000721772117210400CA21872217219721AD9
:1029C0007227503E74692511F582E4340EF583E0D8
:1029D000FF7003022A8275F07EE512A424D7F582E7
:1029E000E5F0340BF583E5822511F582E43583F5B6
:1029F00083E08FF0A4AEF07806CEC313CE13D8F9DF
:102A00008047A20A722E720C504FE51E640860497E
:102A100074692511F582E4340EF583E0FF60637577
:102A2000F07EE512A424D7F582E5F0340BF583E5BA
:102A3000822511F582E43583F583E08FF0A4FFAEA3
:102A4000F07C007DFF125108EF851FF0A4AEF02549
:102A5000E0F50CEE33F50B802975F07EE512A42429
:102A6000D7F582E5F0340BF583E5822511F582E494
:102A70003583F583E0FFE51F25E0FD128B738E0B98
:102A80008F0C12536D051102285D1283FD20120C6C
:102A90002033097D017C00AF0A125A212220110344
:102AA000022D4FE51D700B900EE904F0A37405F0A4
:102AB0008042E51DB4010C900EE97402F0A3740489
:102AC000F08031E51DB4020A900EE97403F0A3F022
:102AD0008022E51DB4030C900EE97404F0A3740287
:102AE000F08011E51DC39404400A900EE97405F0CE
:102AF000A37401F0900FA3E004F0900EE9E024022B
:102B0000FFE433FE900FA3E0D39FEE6480F874805F
:102B1000985003022D4FE4F0204E03022C35900F05
:102B200098E0FEA3E0FF9415EE9400501674DE2F9B
:102B3000F58274563EF583E493FF900EE7F07E0035
:102B4000127D32900F98E0FEA3E0FFC39416EE943E
:102B500000501674F32FF58274563EF583E493FF0C
:102B6000900EE7F07E00127D32900F98E0FEA3E019
:102B7000FFC39417EE9400501674092FF582745712
:102B80003EF583E493FF900EE7F07E00127D3290D5
:102B90000F98E0FEA3E0FFC39418EE940050167463
:102BA000202FF58274573EF583E493FF900EE7F0F3
:102BB0007E00127D32900F98E0FEA3E0FFC39419CF
:102BC000EE9400501674382FF58274573EF583E466
:102BD00093FF900EE7F07E00127D32900F98E0FE9A
:102BE000A3E0FFC3941AEE9400501674512FF5829F
:102BF00074573EF583E493FF900EE7F07E00127D5C
:102C00003212833C900F99E004F07006900F98E028
:102C100004F0900EEAE02428FFE433FED3900F99ED
:102C2000E09F900F98E09E5003022D4FE4F0A3F038
:102C3000D24FC24E22204F03022D4F900F98E0FE3C
:102C4000A3E0FFC39415EE94005016746B2FF58229
:102C500074573EF583E493FF900EE7F07E00127DFB
:102C600032900F98E0FEA3E0FFC39417EE9400505B
:102C70001674802FF58274573EF583E493FF900E0F
:102C8000E7F07E00127D32900F98E0FEA3E0FFC3D4
:102C90009418EE9400501674972FF58274573EF5F1
:102CA00083E493FF900EE7F07E00127D32900F9840
:102CB000E0FEA3E0FFC39419EE9400501674AF2F0A
:102CC000F58274573EF583E493FF900EE7F07E00A3
:102CD000127D32900F98E0FEA3E0FFC3941AEE94A9
:102CE00000501674C82FF58274573EF583E493FFA5
:102CF000900EE7F07E00127D32900F98E0FEA3E088
:102D0000FFC3941BEE9400501674E22FF5827457A3
:102D10003EF583E493FF900EE7F07E00127D3212C1
:102D2000833C900F99E004F07006900F98E004F057
:102D3000900EEAE02428FFE433FED3900F99E09F41
:102D4000900F98E09E4008E4F0A3F0C24FD24E22CC
:102D500090FF807482F0A3E4F0A3F0A3F0A3F0A3AB
:102D6000F090FF9C740AF090FF987414F090FFB8F4
:102D7000E4F090FFA0F090FFE8740BF090FFD074A7
:102D8000B8F090FFB9E4F090FFA1F090FFE9740B68
:102D9000F090FFD174B8F090FFBAE4F090FFA2F089
:102DA00090FFEA740BF090FFD274B8F090FFBBE490
:102DB000F090FFA3F090FFEB740BF090FFD374B88A
:102DC000F090FFBCE4F090FFA4F090FFEC740BF0E7
:102DD00090FFD474B8F090FFBDE4F090FFA5F090A0
:102DE000FFED740BF090FFD574B8F090FF867482FD
:102DF000F0A3E4F0A3F0A3F0A3F0A3F090FF9D7480
:102E00000AF090FF997414F090FFBEE4F090FFA6D2
:102E1000F090FFEE740BF090FFD674B8F090FFBF07
:102E2000E4F090FFA7F090FFEF740BF090FFD774E1
:102E3000B8F090FFC0E4F090FFA8F090FFF0740BA2
:102E4000F090FFD874B8F090FFC1E4F090FFA9F0C3
:102E500090FFF1740BF090FFD974B8F090FFC2E4CA
:102E6000F090FFAAF090FFF2740BF090FFDA74B8C4
:102E7000F090FFC3E4F090FFABF090FFF3740BF021
:102E800090FFDB74B8F090FF8C7482F0A3E4F0A3A1
:102E9000F0A3F0A3F0A3F090FF9E740AF090FF9AC5
:102EA0007414F090FFC4E4F090FFACF090FFF47461
:102EB0000BF090FFDC74B8F090FFC5E4F090FFAD2C
:102EC000F090FFF5740BF090FFDD74B8F090FFC642
:102ED000E4F090FFAEF090FFF6740BF090FFDE741C
:102EE000B8F090FFC7E4F090FFAFF090FFF7740BDD
:102EF000F090FFDF74B8F090FFC8E4F090FFB0F0FE
:102F000090FFF8740BF090FFE074B8F090FFC9E404
:102F1000F090FFB1F090FFF9740BF090FFE174B8FE
:102F2000F090FF927482F0A3E4F0A3F0A3F090FF7E
:102F30009F740AF090FF9B7414F090FFCAE4F09025
:102F4000FFB2F090FFFAF090FFE27432F090FFCB06
:102F5000E4F090FFB3F090FFFBF090FFE37432F0E9
:102F600090FFCCE4F090FFB4F090FFFCF090FFE411
:102F70007432F090FFCDE4F090FFB5F090FFFDF0DB
:102F800090FFE57432F075DA82E4F5DBF5DC75DE8E
:102F90000A75DD14F5D5F5D275C30B75CEB8F5D627
:102FA000F5D375C40B75C1B8F5D7F5D475C50B75D8
:102FB000C2B822E4F5B112879F128BC712871B1289
:102FC0000046C25CC2481250FD128B68D22AD2A8B9
:102FD000D2AF1286301286301286301286301286B8
:102FE00030128630128630128630E4F5B11262C794
:102FF000E4F5B112843BE4F5B1123747E4F5B1D200
:10300000CA43A90290FF8074CAF090FFE8E4F090F0
:10301000FFD0F012003EE4F5B1304A0B300408C294
:103020004A304C03124895303908200405C2391241
:10303000489530424AE4F5B1125E2512663A121AFA
:103040000A1272E5126983125D291263A7124DEF0D
:1030500012837D124B5A1284E930040B12001912AC
:1030600061E31257FD8016305307C25312877380F5
:103070000C1249FA125B2C125B2C125B2CC24230F0
:103080004308C243122111123EE4304631C246E4E5
:10309000F5B1305605C256125F1D128A8A12874753
:1030A000124413124F2D122A9D12471612426A1211
:1030B00040B01272471275E3126A5112001A20478B
:1030C00003023016E4F5B112003AE4F536F5371292
:1030D00054971285C5126B1D305219E4F5B1125B7D
:1030E0002C0537E53770020536D39403E536940096
:1030F00040E6C252C2470230164397084397022265
:103100000000000000000000E4900F09F0900F099B
:10311000E0FFC3947E4003023338E51E7036900D05
:10312000EAE0FE74D72FF582E4340BF583EEF090DD
:103130000DE9E0FE74552FF582E4340CF583EEF0D2
:10314000900DE8E0FE74D32FF582E4340CF583EEA5
:10315000F002332FE51E6408600302331E201F03B4
:10316000023243900FA1E0FF24EBF582E4340DF529
:1031700083E0FE20E70302332F74EB2FF582E43463
:103180000DF583EE547FF0900F99E004F0700690F7
:103190000F98E004F0D3900F99E09405900F98E019
:1031A00094004004E4F0A3F0900F09E0FF24D7F569
:1031B00082E4340BF583E4F074552FF582E4340C8B
:1031C000F583E4F074D32FF582E4340CF583E4F056
:1031D000900F98E0FEA3E0FF4E7003023288EF6488
:1031E000014E7003023296900F98E0FEA3E0FF6458
:1031F000024E70030232A9EF64034E70030232BC28
:10320000900F98E0FEA3E0FF64044E7017900F0942
:10321000E0FD2455F582E4340CF58374FFF074D39B
:103220002D0232AFEF64054E600302332F900F0979
:10323000E0FF24D7F582E4340BF58374FFF074D3F8
:103240002F806CAFCCEFFEADCDEDFF900F09E02FDE
:10325000FFE43EFE7C007D05125108AE04AF05E0A0
:10326000FD24D7F582E4340BF583E4F074552DF595
:1032700082E4340CF583E4F074D32DF582E4340C4D
:10328000F583E4F0EF4E7008900F09E024D78040FA
:10329000EF64014E700D900F09E02455F582E4347F
:1032A0000C8074EF64024E700D900F09E024D3F58A
:1032B00082E4340C8061EF64034E701B900F09E0D0
:1032C000FF2455F582E4340CF58374FFF074D72F96
:1032D000F582E4340B8040EF64044E701B900F09BC
:1032E000E0FF2455F582E4340CF58374FFF074D3C9
:1032F0002FF582E4340C801FEF64054E7031900F7F
:1033000009E0FF24D7F582E4340BF58374FFF074F1
:10331000D32FF582E4340CF58374FFF08011900F05
:1033200009E0FFE51EFD7C007BFF7A001260FB9048
:103330000F09E004F002310D22900F84E07002A327
:10334000E0600E900F85E024FFF0900F84E034FFE2
:10335000F0E4900EFDF0303B067404F0023442308D
:103360001C09900EFD7405F0023442302809900EBD
:10337000FD7406F002344230041C900EFE7416F008
:1033800030290AC229E4900EFDF0023442900EFD6D
:103390007401F002344230002A900F3DE0B4011075
:1033A000C24AE4900F92F0A3F0900EFE7417807161
:1033B000900F84E07004A3E0640160030234427F54
:1033C00001807C300121900F3DE0B4210AC24AE423
:1033D000900F92F0A3804A900F84E07004A3E06401
:1033E00001705F7F02805830021F900F3DE0B441B2
:1033F0000AC24AE4900F92F0A38026900F84E070F6
:1034000002A3E0703D7F038036300336900F3DE02D
:10341000B4611EC24AE4900F92F0A3F0900EFE74C5
:103420001AF0900F3EE0FF128903900EFDEFF0803E
:1034300011900F84E07004A3E0640170057F041212
:103440006483900EFDE0B4070040030235469034DB
:1034500055F828287302346A02347102348A02341F
:10346000AF0234B20234ED023519900F8974AAF01C
:1034700022900F87E004F0E0D3940C50030235460D
:10348000E4F0900F86E0601B803F900F87E004F02F
:10349000E0D394285003023546E4F0900F86E060B4
:1034A000028026900F867401F0900F89023543E464
:1034B0008019900F87E004F0E0D394145003023594
:1034C00046E4F0900F86E06007E4F0900F89F02268
:1034D000900F867401F0900F8974FAF0900F88E0D5
:1034E00004F0E0D39402405EE4F0C23B22900F87E8
:1034F000E004F0E0D39428404DE4F0900F86E0041F
:10350000F0E0FF30E00EE4900F81F0EFD39406403E
:1035100035C21C22900F81802A900F87E004F0E0D2
:10352000D394284021E4F0900F86E004F0E0FF30CF
:10353000E00EE4900F81F0EFD3940A4009C22822F4
:10354000900F8174FAF0222C0352004B00200042AD
:10355000006C007500650074006F006F00740068F7
:103560000020004B006500790062006F006100726E
:103570000064001803530049004E004F002000571C
:1035800000450041004C00540048000A0330003060
:103590000030003100100342005900200054006543
:1035A0000063006800000403090405010906A10185
:1035B000050719E029E71500250195087501810225
:1035C00095017508810395067508150026FF00050D
:1035D0000719002AFF0081002501950575010508DE
:1035E000190129059102950175039103C00501098F
:1035F00080A1018501198129831500250175019597
:1036000003810295058101C0050C0901A101850214
:1036100019002A3C021500263C0295017510810014
:10362000C00600FF0901A1018505150026FF00194C
:1036300001290275089505B102C005010906A1011D
:10364000850605071904297015002501750195786F
:103650008102C00600FF0901A101850A150026FFAD
:1036600000090075089540B102C012011001000068
:1036700000088A25650009500102000109023B008B
:10368000020100A0FA090400000103010100092160
:10369000110100012243000705810308000109040C
:1036A00001000103000000092111010001227D0039
:1036B00007058203100001092111010001224300C6
:1036C000092111010001227D00FF30F9FF8AB0FFBE
:1036D0008521FF8AC2FF8663FF8B05FF8694FF86E4
:1036E000EFFF0016FF7E49FF8031FF702FFF247926
:1036F000FF87C9FF8896FF7B1AFF6711FF8A77FF54
:103700008870FF88BBFF82300001010201020003C4
:1037100003020304000505000906010B0700070862
:1037200080000980060C81060C80080D81000A8249
:10373000000B810A0EA1010F210910210A11A1021B
:1037400012210B13A10314900BD074BCF0A3E4F06E
:10375000FF900BD0E0FCA3E0F5828C83E493FE7431
:10376000552FF582E43400F583EEF0900BD1E004A0
:10377000F07006900BD0E004F00FEFB4C0D3E4FF7C
:10378000900BD0E0FCA3E0F5828C83E493FE7415EB
:103790002FF582E43401F583EEF0900BD1E004F0D4
:1037A0007006900BD0E004F00FEFB4C0D3900BD0B4
:1037B00074BEF0A3E4F0FF900BD0E0FCA3E0F58230
:1037C0008C83E493FE74D52FF582E43401F583EE07
:1037D000F0900BD1E004F07006900BD0E004F00FF5
:1037E000EFB4C0D3E4FF900BD0E0FCA3E0F5828CF3
:1037F00083E493FE74952FF582E43402F583EEF0B2
:10380000900BD1E004F07006900BD0E004F00FEFC5
:10381000B4C0D3900BD074C0F0A3E4F0FF900BD0F1
:10382000E0FCA3E0F5828C83E493FE74552FF582CF
:10383000E43403F583EEF0900BD1E004F0700690D1
:103840000BD0E004F00FEFB4C0D3E4FF900BD0E056
:10385000FCA3E0F5828C83E493FE74152FF582E4DB
:103860003404F583EEF0900BD1E004F07006900B79
:10387000D0E004F00FEFB4C0D3900BD074C2F0A32B
:10388000E4F0FF900BD0E0FCA3E0F5828C83E4939E
:10389000FE74D52FF582E43404F583EEF0900BD15D
:1038A000E004F07006900BD0E004F00FEFB4C0D34A
:1038B000E4FF900BD0E0FCA3E0F5828C83E493FE60
:1038C00074952FF582E43405F583EEF0900BD1E08A
:1038D00004F07006900BD0E004F00FEFB4C0D3906A
:1038E0000BD074C4F0A3E4F0FF900BD0E0FCA3E095
:1038F000F5828C83E493FE74552FF582E43406F54B
:1039000083EEF0900BD1E004F07006900BD0E00451
:10391000F00FEFB4C0D3E4FF900BD0E0FCA3E0F5D0
:10392000828C83E493FE74152FF582E43407F583CB
:10393000EEF0900BD1E004F07006900BD0E004F0B4
:103940000FEFB4C0D322AB07E51E7034900DEAE050
:10395000FF74D72BF582E4340BF583EFF0900DE97B
:10396000E0FF74552BF582E4340CF583EFF0900DF5
:10397000E8E0FF74D32BF582E4340CF583EFF022FA
:10398000E51E64086003023B34201F03023A4490A2
:103990000FA1E0FF24EBF582E4340DF583E0FE2077
:1039A000E703023B4274EB2FF582E4340DF583EE1E
:1039B000547FF0900F99E004F07006900F98E004A7
:1039C000F0D3900F99E09405900F98E09400400494
:1039D000E4F0A3F074D72BF582E4340BF583E4F024
:1039E00074552BF582E4340CF583E4F074D32BF595
:1039F00082E4340CF583E4F0900F98E0FEA3E0FF3E
:103A00004E7003023AE6EF64014E7003023AB29040
:103A10000F98E0FEA3E0FF64024E7003023AC2EF8B
:103A200064034E7003023AD9900F98E0FEA3E0FFC2
:103A300064044E7003023AF6EF64054E6003023BE5
:103A400042023B19AFCC900EF8E4F0A3EFF0E0FF98
:103A5000ADCDED900EF8CFF0A3EFF0EBFFE02FF03F
:103A6000900EF8E03400F0E0FEA3E0FF7C007D055E
:103A7000125108900EF8ECF0A3EDF074D72BF582FC
:103A8000E4340BF583E4F074552BF582E4340CF543
:103A900083E4F074D32BF582E4340CF583E4F0ED89
:103AA0004C70028041900EF8E0FEA3E0FF64014EEE
:103AB000700A74552BF582E4340C8072EF64024E68
:103AC000700A74D32BF582E4340C8062900EF8E017
:103AD000FEA3E0FF64034E701774552BF582E434A7
:103AE0000CF58374FFF074D72BF582E4340B803E21
:103AF000EF64044E701774552BF582E4340CF58393
:103B000074FFF074D32BF582E4340C8021900EF80E
:103B1000E07004A3E06405702974D72BF582E434C7
:103B20000BF58374FFF074D32BF582E4340CF5832A
:103B300074FFF022AF03E51EFD7C007BFF7A0012CC
:103B400060FB227F5E1270D5900BD074BCF0A3E4B2
:103B5000F0FC900BD0E0FEA3E0FF74552CF582E45E
:103B60003400128477900BD1E004F07006900BD0F3
:103B7000E004F00CECB4C0DAE4FC900BD0E0FEA35F
:103B8000E0FF74152CF582E43401128477900BD198
:103B9000E004F07006900BD0E004F00CECB4C0DA56
:103BA0007F5F1270D5900BD074BEF0A3E4F0FC9050
:103BB0000BD0E0FEA3E0FF74D52CF582E4340112B3
:103BC0008477900BD1E004F07006900BD0E004F005
:103BD0000CECB4C0DAE4FC900BD0E0FEA3E0FF7480
:103BE000952CF582E43402128477900BD1E004F036
:103BF0007006900BD0E004F00CECB4C0DA7F6012D9
:103C000070D5900BD074C0F0A3E4F0FC900BD0E022
:103C1000FEA3E0FF74552CF582E434031284779000
:103C20000BD1E004F07006900BD0E004F00CECB483
:103C3000C0DAE4FC900BD0E0FEA3E0FF74152CF595
:103C400082E43404128477900BD1E004F070069083
:103C50000BD0E004F00CECB4C0DA7F611270D590A8
:103C60000BD074C2F0A3E4F0FC900BD0E0FEA3E014
:103C7000FF74D52CF582E43404128477900BD1E0E4
:103C800004F07006900BD0E004F00CECB4C0DAE461
:103C9000FC900BD0E0FEA3E0FF74952CF582E43499
:103CA00005128477900BD1E004F07006900BD0E001
:103CB00004F00CECB4C0DA7F621270D5900BD074B3
:103CC000C4F0A3E4F0FC900BD0E0FEA3E0FF745539
:103CD0002CF582E43406128477900BD1E004F07066
:103CE00006900BD0E004F00CECB4C0DAE4FC900BCE
:103CF000D0E0FEA3E0FF74152CF582E434071284B3
:103D000077900BD1E004F07006900BD0E004F00C3B
:103D1000ECB4C0DA22900EFE7401F0EFB41500404E
:103D200003023EE3903D2BF8282873023EAE023E8C
:103D3000C0023ED2023E9C023E8A023E78023E66AD
:103D4000023E54023E42023E30023E1E023E0C0241
:103D50003DFA023DE8023DD6023DC4023DB2023DBD
:103D6000A0023D8E023D7C023D6AED4C700743E2AD
:103D7000015390FE2243900153E2FE22ED4C700766
:103D800043E2025390FD2243900253E2FD22ED4CA8
:103D9000700743E2045390FB2243900453E2FB225A
:103DA000ED4C700743E2085390F72243900853E22A
:103DB000F722ED4C700743E2105390EF224390102E
:103DC00053E2EF22ED4C700743E2205390DF224391
:103DD000902053E2DF22ED4C700743E3015398FE3D
:103DE0002243980153E3FE22ED4C700743E3025354
:103DF00098FD2243980253E3FD22ED4C700743E304
:103E0000045398FB2243980453E3FB22ED4C7007C4
:103E100043E3085398F72243980853E3F722ED4C05
:103E2000700743E3105398EF2243981053E3EF22B7
:103E3000ED4C700743E3205398DF2243982053E36F
:103E4000DF22ED4C700743E40153A0FE2243A001A2
:103E500053E4FE22ED4C700743E40253A0FD2243DD
:103E6000A00253E4FD22ED4C700743E40453A0FB91
:103E70002243A00453E4FB22ED4C700743E40853B3
:103E8000A0F72243A00853E4F722ED4C700743E467
:103E90001053A0EF2243A01053E4EF22ED4C700723
:103EA00043E42053A0DF2243A02053E4DF22ED4C63
:103EB000700743E6015388FE2243880153E6FE2241
:103EC000ED4C700743E6025388FD2243880253E617
:103ED000FD22ED4C700743E6045388FB224388041F
:103EE00053E6FB223061030240AF7C0A301F719021
:103EF0000FA3E004F0E51D75F002A4FFE0D39FE5F9
:103F0000F06480F874809850030240AFE4F0FD74D0
:103F1000692DF582E4340EF583E0600D74692DF5AA
:103F200082E4340EF583E014F074692DF582E434F4
:103F30000EF583E0702474D72DF582E4340BF583FD
:103F4000E4F074552DF582E4340CF583E4F074D379
:103F50002DF582E4340CF583E4F00DEDB47EB0224F
:103F6000302C55E51D7002801AE51DB40102801346
:103F7000E51DB40202800CE51DB403028005E51DB9
:103F8000D39404900FA3E004F0E0D39432500302E2
:103F900040AFE4F0FD74692DF582E4340EF583E062
:103FA000C39440500D74692DF582E4340EF583E01E
:103FB00004F00DEDB47EDE22301D6F0538E51D7571
:103FC000F002A4FFE538D39FE5F06480F874809890
:103FD00050030240AFE4F538FD74692DF582E434F6
:103FE0000EF583E0600D74692DF582E4340EF583DF
:103FF000E014F074692DF582E4340EF583E070244A
:1040000074D72DF582E4340BF583E4F074552DF567
:1040100082E4340CF583E4F074D32DF582E4340C9F
:10402000F583E4F00DEDB47EB022A2117217721088
:10403000400CA21872217219721A72275071053839
:10404000E538D394094068E4F538FDA2117217727F
:1040500010400CA21872217219721A7227504B74F8
:10406000692DF582E4340EF583E0600D74692DF559
:1040700082E4340EF583E014F074692DF582E434A3
:104080000EF583E0702474D72DF582E4340BF583AC
:10409000E4F074552DF582E4340CF583E4F074D328
:1040A0002DF582E4340CF583E4F00DEDB47E9C2212
:1040B000201903024269E51D7008900EE97402F0B0
:1040C0008034E51DB40108900EE97403F08027E503
:1040D0001DB40208900EE97404F0801AE51DB403C3
:1040E00008900EE97405F0800DE51DC394044006A8
:1040F000900EE97406F0900FA3E004F0900EE9E052
:10410000FF900FA3E0D39F5003024269E4F0204EDA
:10411000030241E2900F98E0FCA3E0FD2496F582B3
:1041200074453CF583E493FF900EE7F0128B2290E8
:104130000F98E0FCA3E0FD24BBF58274453CF583B9
:10414000E493FF900EE7F0128B22900F98E0FCA30F
:10415000E0FD24E0F58274453CF583E493FF900E86
:10416000E7F0128B22900F98E0FCA3E0FD2405F508
:104170008274463CF583E493FF900EE7F0128B22A5
:10418000900F98E0FCA3E0FD242AF58274463CF5EC
:1041900083E493FF900EE7F0128B22900F98E0FCDF
:1041A000A3E0FD244FF58274463CF583E493FF9031
:1041B0000EE7F0128B2212833C900F99E004F0700E
:1041C00006900F98E004F0D3900F99E09425900F9B
:1041D00098E094005003024269E4F0A3F0D24FC289
:1041E0004E22304F51900F98E0FCA3E0FD2474F56F
:1041F0008274463CF583E493FF900EE7F0128B2225
:1042000012833C900F99E004F07006900F98E00440
:10421000F0D3900F99E09424900F98E094004049D7
:10422000E4F0A3F0C24FC24ED250900F6E7446F02D
:10423000E4900F7FF022305030900F7FE004F0E0E8
:10424000FFD3941C4013E4F0900F6EF0900F98F0A1
:10425000A3F0C24FD24EC25022900F6EE0900F7466
:10426000F0900F75EFF0121D9B22201803024412EC
:10427000E51D7008900EE87402F08034E51DB4016D
:1042800008900EE87403F08027E51DB40208900E34
:10429000E87404F0801AE51DB40308900EE8740574
:1042A000F0800DE51DC394044006900EE87406F0FE
:1042B000304E5F900FA3E004F0900EE8E0FF900F07
:1042C000A3E0D39F5003024412E4F0900F98E0FC67
:1042D000A3E0FD2411F58274593CF583E493FF902B
:1042E0000EE7F0128B2212833C900F99E004F070DD
:1042F00006900F98E004F0D3900F99E09476900F19
:1043000098E094005003024412E4F0A3F0D24FC2AC
:104310004E22204F03024398900FA3E004F0900E2A
:10432000E8E02404FFE433FE900FA3E0D39FEE64A3
:1043300080F87480985003024412E4F0900F98E0E3
:10434000FCA3E0FD940DEC9400501774872DF582CA
:1043500074593CF583E493FF900EE7F0128B221220
:10436000833C900F99E004F07006900F98E004F001
:10437000D3900F99E09419900F98E09400500302A5
:104380004412E4F0A3F0C24FC24ED250900F6E74AC
:1043900046F0E4900F7FF022305051900FA3E004DC
:1043A000F0900EE8E075F002A4FF900FA3E0D39F19
:1043B000E5F06480F87480984058E4F0900F7FE056
:1043C00004F0E0FFD3941B4013E4F0900F6EF090E4
:1043D0000F98F0A3F0C24FD24EC25022900F6EE061
:1043E000900F74F0900F75EFF0021D9B30512390E9
:1043F0000FA3E004F0900EE8E0FF900FA3E0D39F3E
:104400004010E4F0900F98F0A3F0C24FC250C25198
:10441000D24E22A221721D720F721E4003024595D8
:10442000900FA3E004F0E51DC394044008900EE94A
:104430007405F08030E51DB40308900EE97404F0B3
:104440008023E51DB40208900EE97403F08016E5A0
:104450001DB40108900EE97402F08009E51D700595
:10446000900EE904F0900EE9E02402FFE433FE90A0
:104470000FA3E0D39FEE6480F87480985003024548
:1044800095E4F0900EE7741CF0900EEB1251FC00D6
:10449000000001E4900EEAF0900EEBE0FCA3E0FDDA
:1044A000A3E0FEA3E0FF900F6FE0F8A3E0F9A3E024
:1044B000FAA3E05FFFEA5EFEE95DFDE85CFC4D4EBD
:1044C0004F700302456D900EEAE0FF2476F582E41A
:1044D000340FF583E004F074762FF582E4340FF5A1
:1044E00083E0FF900EE7E0FEEFD39E4051900EEA8E
:1044F000E02476F582E4340FF583E4F0900F6FE06A
:10450000F8A3E0F9A3E0FAA3E0FB900EEBE0FCA334
:10451000E0FDA3E0FEA3E0FF1251BFEB5FFFEA5E08
:10452000FEE95DFDE85CFC900F6F1251F0900EEA21
:10453000E02465F582E4340FF583E4F0802F900EDB
:10454000EAE0FF2465F582E4340FF583E0900F7410
:10455000F074762FF582E4340FF583E0900F75F058
:10456000D394074005E4900EE8F0121D9B900EEBEB
:10457000E0FCA3E0FDA3E0FEA3E0FF78011251DD23
:10458000900EEB1251F0900EEAE004F0E0C3940AB2
:1045900050030244982215161718191A1B1C1D1EC9
:1045A0001F202122232425262728293E3D3C3B3A53
:1045B00039383736353433323145467D7D00010296
:1045C000030405060708090A0B0C0D0E0F10111243
:1045D0001314292827262524232221201F1E1D31BC
:1045E0007D7D2A2B2C2D2E2F30313233343536372A
:1045F00038393A3B3C3D3E535251504F4E4D4C4B57
:104600004A4948475B6867666564636261605F5EEC
:104610005D5C5B5A5958575655543F40414243449C
:104620004546473231455A5B47467D7D7D7C7B7AE6
:10463000797877767574737271706F6E6D6C6B6A62
:10464000695455565758595A5B47327D7D7D7D7D5B
:104650007D535251504F4E4D4C4B4A494847464569
:1046600044434241403F2A2B2C2D2E2F30313247DC
:104670005B5A454731455A5B473231455A5B4732B1
:1046800031455A5B473231455A5B473231455A5BB7
:104690004732467D7D7D7D7D0001020304050607CE
:1046A00008090A0B0C0D0E0F1011121314292827DC
:1046B000262524232221201F1E1D1C1B1A19181712
:1046C00016152A2B2C2D2E2F303132333435363718
:1046D00038393A3B3C3D3E535251504F4E4D4C4B76
:1046E0004A494847464544434241403F545556573E
:1046F00058595A5B5C5D5E5F6061626364656667C2
:10470000687D7C7B7A797877767574737271706F57
:104710006E6D6C6B6A69201703024894E51D700882
:10472000900EE97403F08034E51DB40108900EE9A1
:104730007404F08027E51DB40208900EE97405F0BA
:10474000801AE51DB40308900EE97406F0800DE5AB
:104750001DC394044006900EE97407F0304F099091
:104760000EE9E075F003A4F0900FA3E004F0900EC2
:10477000E9E0FF900FA3E0D39F5003024894E4F0D8
:10478000204E0302480F900F98E0FEA3E0FF9435FF
:10479000EE9400504E74B42FF58274683EF583E4B5
:1047A00093FF900EE7F07E00127D32900F98E0FEAE
:1047B000A3E024EBF58274683EF583E493FF900E4A
:1047C000E7F07E00127D32900F98E0FEA3E02422F5
:1047D000F58274693EF583E493FF900EE7F07E0066
:1047E000127D3212833C900F99E004F07006900F16
:1047F00098E004F0D3900F99E09437900F98E094EC
:10480000005003024894E4F0A3F0D24FC24E22308D
:104810004F4F900F98E0FEA3E02459F58274693E53
:10482000F583E493FF900EE7F07E00127D32900F47
:1048300099E004F07006900F98E004F0D3900F997F
:10484000E0941E900F98E094004049E4F0A3F0C279
:104850004FC24ED250900F6E7446F0E4900F7FF02E
:1048600022305030900F7FE004F0E0FFD3941B40E3
:1048700013E4F0900F6EF0900F98F0A3F0C24FD2B7
:104880004EC25022900F6EE0900F74F0900F75EFB3
:10489000F0121D9B22C2AFC2A812811190FF927428
:1048A00002F0A3E4F0A3F053EEF843E6075388F8D0
:1048B00053ECC043E43F53A0C053EBC043E33F532A
:1048C00098C053EAC043E23F5390C053E9E343E149
:1048D0001C5380E353EE7F43E68053887FF5EF75EA
:1048E000E7FFF5C053ED8443E57B53B08453EE9F5F
:1048F00053E69F53889F43D9C043D1E053F81FC26A
:10490000FE53E1BF53E57F53E17F53E1DF53D1EF26
:10491000D25C200439F5B675E8F375BAF243A80203
:10492000D2AF43910153B2FB53BCFE53BCFD53B213
:10493000F743948553927AF5A953913B538FFE53D5
:10494000E9FC43E1035380FC000000008023E4F510
:10495000E875BAF275B6C043A802D2AF43910153CD
:10496000B2FB53BCFE53BCFD43948553927A75A9A8
:10497000010000000000758E554387020000000012
:104980000000E4F5B1C2AFF5B6F5E8F5BA53A8FDFD
:1049900075B2087F05FE12863743BC027F2112865E
:1049A00037E4F5B175BC0375B20C7F051286375339
:1049B00092FD5391FE758F01439102C24175945F40
:1049C00043A901127D9112000E128A64C24AC25C90
:1049D00043E120C285125F1DE4900F49F0A3F0D29D
:1049E0005DD2AFD2A843A90290FF8074CAF090FFB5
:1049F000E8E4F090FFD0F002003E305203024B5941
:104A0000A2377235725A4003024B15128B5D128524
:104A10008F900F1A74AAF0A3741DF0A37402F09083
:104A20000047E0784046900F1DF008E6A3F008E646
:104A3000A3F008E6A3F008E6A3F008E6A3F0E4A3D9
:104A4000F0305A71900016E0900F24F0900017E0BB
:104A5000900F25F0900018E0900F26F0900019E0DC
:104A6000900F27F090001AE0900F28F090001BE0C4
:104A7000900F29F090001CE0900F2AF090001DE0AC
:104A8000900F2BF090001EE0900F2CF090001FE094
:104A9000900F2DF0900020E0900F2EF0900021E07C
:104AA000900F2FF0900022E0900F30F0900023E064
:104AB000900F31803A7883E6900F24F008E6A3F057
:104AC00008E6A3F008E6A3F008E6A3F008E6A3F0E2
:104AD00008E6A3F008E6A3F008E6A3F008E6A3F0D2
:104AE00008E6A3F008E6A3F008E6A3F008E6A3F0C2
:104AF000E4A3F0A3F0E4900F34F0A3F0A3F0A3F04C
:104B0000A3F0D252C235C237C25A900F3AF0A3F086
:104B1000900F18F022303641900F1A74AAF0A37447
:104B20000BF0A37405F0E4A3F0A3F0A3F0A3F0A3AB
:104B3000F0A3F03036097894E6A3F018E6A3F0E489
:104B4000900F25F0A3F0D252900F3AF0A3F0900FFF
:104B500018F07893F608F6C23622306003024CACA7
:104B60003034407871E630E52F900A4DE0603490A3
:104B70000A50E004F0E0D394784028E4F0900A4D25
:104B8000F0C23B900F8DF0127CD0E4900A4EF0A35F
:104B9000F0900A5204F0800B900A4D7401F0E490FA
:104BA0000A50F0900A52E07003024CAC900A4FE0B9
:104BB00004F07006900A4EE004F0900A4EE0FEA366
:104BC000E0FFC39464EE9400503FE4900EE7F09051
:104BD0000EE7E0FDC3947E4003024CAC74D72DF584
:104BE00082E4340BF58374FAF074552DF582E434C5
:104BF0000CF583E4F074D32DF582E4340CF583E4F2
:104C0000F0900EE7E004F080C6EF64644E703E90D2
:104C10000EE7F0900EE7E0FFC3947E4003024CAC39
:104C200074552FF582E4340CF58374FAF074D72FA1
:104C3000F582E4340BF583E4F074D32FF582E43489
:104C40000CF583E4F0900EE7E004F080C6900A4E85
:104C5000E0FEA3E0FF64C84E703B900EE7F0900EBC
:104C6000E7E0FDC3947E504474D32DF582E4340C08
:104C7000F58374FAF074552DF582E4340CF583E471
:104C8000F074D72DF582E4340BF583E4F0900EE751
:104C9000E004F080C9D3EF942CEE9401400EE49030
:104CA0000A4EF0A3F0900A52F01285FB22900F50AA
:104CB000E0FCA3E0FD64414C7077900F6204F0903B
:104CC0000F51E024F8F0900F50E034FFF0900F63A4
:104CD0007411F0A37408F0900F63E0FAA3E0FBF501
:104CE000828A837401F08B828A83A3F08B828A8309
:104CF000A3A3F08B828A83A3A3A3F0EB2404F58201
:104D0000E43AF5837401F0EB2405F582E43AF58387
:104D1000E4F0EB2406F582E43AF583E4F0EB2407B3
:104D2000F582E43AF583E4F0539BF0439B08D24BC1
:104D300022D3ED9408EC94004023900F627401F0AC
:104D4000900F51E024F8F0900F50E034FFF0900FF6
:104D500058E02408F0900F57E034008036900F5050
:104D6000E07004A3E064087032900F6204F0A37452
:104D700011F0A37408F0E4FF900F63E0FCA3E02FB0
:104D8000F582E43CF583E4F00FEFB408EBE4900F18
:104D900050F0A3F0539BF0439B0822900F50E0701B
:104DA00002A3E07013900F627402F0539BF0E49042
:104DB0000F50F0A3F0C24B22900F627402F0A37464
:104DC00011F0A37408F0E4FF900F63E0FCA3E02F60
:104DD000F582E43CF583E4F00FEFB408EB539BF06D
:104DE000900F50A3E0429BE4900F50F0A3F02220DC
:104DF0003403024F2C7878E65404FF18E654044F2D
:104E0000FF7871E654024FFF08E654024F603930D4
:104E10001538C2157878E630E203128A3C7877E6D6
:104E200030E203128A9D7871E630E10A303807E5F6
:104E3000146003128A9D7872E630E10E30380BE57B
:104E4000146007128A3C8002D2157875E620E403CC
:104E5000024F2A200803024F2CC208302003024FC1
:104E60002C300903024F2C300B03024F2C300D0362
:104E7000024F2CE51E7003751E07051EE51ED39418
:104E8000084003751E01900F9C74AAF0C21212878D
:104E90001B123108A20A722E720C4003024F27E542
:104EA0001EB4010C900DEA74FFF0E4900DE8806FE1
:104EB000E51EB4020D900DEA74FFF0900DE9F0E4E8
:104EC0008010E51EB40311900DE974FFF0E4900D1D
:104ED000EAF0900DE8F0804CE51EB4040C900DE86B
:104EE00074FFF0E4900DEA8036E51EB40511900DD4
:104EF000E874FFF0900DE9F0E4900DEAF08025E50C
:104F00001EB4060D900DE874FFF0900DEAF0E480F9
:104F10000FE51EB4070E900DE874FFF0900DEAF057
:104F2000900DE9F0120046028BC4D2082220100333
:104F3000025068E51D7008900EE77403F08034E5B8
:104F40001DB40108900EE77404F08027E51DB4023B
:104F500008900EE77405F0801AE51DB40308900E62
:104F6000E77406F0800DE51DC394044006900EE73B
:104F70007407F0900FA3E004F0900EE7E02403FF25
:104F8000E433FE900FA3E0D39FEE6480F874809822
:104F90005003025068E4F0900F9DE004F0E0D394D9
:104FA000054002E4F0900F98E0FEA3E0FF24F3F543
:104FB0008274873EF583E493FD900EE9F074082F28
:104FC000F58274883EF583E493900EEAF0EDFF7E5F
:104FD00000127D32900EEAE02415FFE433FE127DCC
:104FE00032900EE9E0242AFFE433FE127D32900E67
:104FF000EAE0243FFFE433FE127D32900EE9E02424
:1050000054FFE433FE127D32900EEAE02469FFE49F
:1050100033FE127D3212833C900FA5E06010900F9A
:1050200099E024FFF0900F98E034FFF0800E900F8D
:1050300099E004F07006900F98E004F0C3900F9987
:10504000E09415900F98E09400400F900FA574FF26
:10505000F0900F98E4F0A37414F0900F98E07002B1
:10506000A3E07004900FA5F02200000000000000F3
:10507000000000000102030405060708090A0C0EDF
:1050800010121416181B1E2124272A2D3135393DE4
:105090004145494D5155595E63686D72777C8186F3
:1050A0008C92989EA4AAB0B6BCC2C8CED5DCE3EA66
:1050B000F1F8FFFFF8F1EAE3DCD5CEC8C2BCB6B028
:1050C000AAA49E98928C86817C77726D68635E59E3
:1050D00055514D4945413D3935312D2A2724211E51
:1050E0001B18161412100E0C0A09080706050403F3
:1050F00002010000000000000000000000D24E226B
:105100000000000000000000BC000BBE0029EF8D75
:10511000F084FFADF022E4CCF875F008EF2FFFEE3D
:1051200033FEEC33FCEE9DEC984005FCEE9DFE0F4B
:10513000D5F0E9E4CEFD22EDF8F5F0EE8420D21CA6
:10514000FEADF075F008EF2FFFED33FD40079850EE
:1051500006D5F0F222C398FD0FD5F0EA22C2D5ECB5
:1051600030E709B2D5E4C39DFDE49CFCEE30E715C1
:10517000B2D5E4C39FFFE49EFE125108C3E49DFD37
:10518000E49CFC800312510830D507C3E49FFFE480
:105190009EFE22C5F0F8A3E028F0C5F0F8E58215E0
:1051A0008270021583E038F022A3F8E0C5F025F004
:1051B000F0E582158270021583E0C838F0E822CF4E
:1051C000F4CFCEF4CECDF4CDCCF4CC22EB9FF5F0E1
:1051D000EA9E42F0E99D42F0E89C45F022E8600F2B
:1051E000EFC333FFEE33FEED33FDEC33FCD8F12299
:1051F000ECF0A3EDF0A3EEF0A3EFF022A8828583FC
:10520000F0D083D082125213125213125213125240
:1052100013E473E493A3C583C5F0C583C8C582C8EE
:10522000F0A3C583C5F0C583C8C582C8228A838917
:1052300082E473E0FCA3E0FDA3E0FEA3E0FF229084
:105240000EF2EEF0A3EFF0A3ECF0A3EDF0A3EFF07D
:10525000ED4C7023900EF2E0FCA3E0FDC3EC648003
:105260009480500302536AED9415EC64809480405E
:105270000302536A025354900EF4E07004A3E064F6
:10528000017025900EF2E0FEA3E0FFC3942AEE64C5
:10529000809480400302536AEF9414EE64809480FB
:1052A000500302536A025354900EF4E07004A3E0DA
:1052B00064027024900EF2E0FEA3E0FFC3943FEE80
:1052C00064809480400302536AEF9429EE648094D2
:1052D00080500302536A807C900EF4E07004A3E0D7
:1052E0006403701E900EF2E0FEA3E0FFC39454EE40
:1052F000648094805074EF943EEE64809480406AA1
:105300008052900EF4E07004A3E06404701E900ECE
:10531000F2E0FEA3E0FFC39469EE64809480504AFB
:10532000EF9453EE6480948040408028900EF4E027
:105330007004A3E064057032900EF2E0FEA3E0FF7B
:10534000C3947DEE648094805020EF9468EE648076
:1053500094804016123946900EF2E0FEA3E02469D4
:10536000F582740E3EF5837440F002833CE510B480
:105370001500400302549690537EF8282873025378
:10538000BD0253C50253CD0253D50253E10253ED82
:105390000253F902540502541102541C025427020C
:1053A000543202543D02544802545302545E025493
:1053B0006902549602547402547F02548AE50BF534
:1053C000C3850CCE22E50BF5C4850CC122E50BF597
:1053D000C5850CC222E50B90FFEDF090FFD502547D
:1053E00093E50B90FFECF090FFD4025493E50B9003
:1053F000FFEBF090FFD3025493E50B90FFEAF0909F
:10540000FFD2025493E50B90FFE9F090FFD10254D4
:1054100093E50B90FFE8F090FFD08077E50B90FFCD
:10542000F3F090FFDB806CE50B90FFF2F090FFDA79
:105430008061E50B90FFF1F090FFD98056E50B906D
:10544000FFF0F090FFD8804BE50B90FFEFF090FF5E
:10545000D78040E50B90FFEEF090FFD68035E50B4E
:1054600090FFF9F090FFE1802AE50B90FFF8F090B3
:10547000FFE0801FE50B90FFF6F090FFDE8014E563
:105480000B90FFF5F090FFDD8009E50B90FFF4F045
:1054900090FFDCE50CF02230FD51C2FE900F83E05E
:1054A00004F0E0D39405404E7406F030FF21900FD5
:1054B0008BE004F0E0D394DC401C301B19C21B20AD
:1054C0002814D228E4900F87F0900F86F08007D23E
:1054D0001BE4900F8BF0302A1DC22A201C18D21C0E
:1054E000E4900F87F0900F86F0800BD22AD2FEC294
:1054F00028E4900F83F0900F80E004F0E0D394351F
:105500004006E4F0900F8AF0900F80E0FDB4140F95
:10551000900F8AE0308E044401F02254FEF022ED18
:10552000B4280F900F8AE0308E044402F02254FD1C
:10553000F022900F80E0643360030255BA30932666
:1055400020040F128967E4FF126483900F8C7401AA
:10555000F022300465900F8CE0605FE4FF126483FA
:10556000E4900F8CF022900F8AE06403703B2001DE
:1055700049200246200343900F82E0B401028022BA
:10558000900F82E0B402071289677F038029900F91
:1055900082E0B403071289677F04801B900F827436
:1055A00001F01289677F02800E900F8AE0700B2055
:1055B00000081289677F0112648322900F54E0FE75
:1055C000A3E0FF4E7006900F620256D6D3EF940808
:1055D000EE940050030256B4900F62740AF0A37464
:1055E00011F0A3E4F0EF64414E7024F52DF52E90F8
:1055F0000F63E0FEA3E0FFF5828E83A3A3E0F53105
:10560000B4010A8F828E83A3A3A3E0F532801090A9
:105610000F63E0FEA3E0F5828E83E0FF120C529050
:105620000F63E0FEA3E0F5828E83A3E0FF120C522D
:10563000900F63E0FEA3E0F5828E83A3A3E0FF1248
:105640000C52900F63E0FEA3E0F5828E83A3A3A328
:10565000E0FF120C52900F63E0FEA3E02404F582F9
:10566000E43EF583E0FF120C52900F63E0FEA3E0EE
:105670002405F582E43EF583E0FF120C52900F639F
:10568000E0FEA3E02406F582E43EF583E0FF120C81
:1056900052900F63E0FEA3E02407F582E43EF58319
:1056A000E0FF120C52900F55E024F8F0900F54E0F8
:1056B00034FFF022E4900F62F0A37411F0A3E4F041
:1056C000900F63E0FEA3E0F5828E83E0FF120C52A0
:1056D000E4900F54F0A3F0539EF0439704227D0111
:1056E00002030405060708090A0B0C0D0E0F101122
:1056F0001213147D15161718191A1B1C1D1E1F20B6
:105700002122232425262728297D7D2A2B2C2D2E76
:105710002F303132333435363738393A3B3C3D3E21
:105720007D7D7D3F404142434445464748494A4B81
:105730004C4D4E4F505152537D7D7D7D54555657A3
:1057400058595A5B5C5D5E5F606162636465666761
:10575000687D7D7D7D7D696A6B6C6D6E6F70717229
:10576000737475767778797A7B7C7D1413121110B7
:105770000F0E0D0C0B0A09080706050403020100B1
:105780007D7D292827262524232221201F1E1D1C3C
:105790001B1A19181716157D7D7D3E3D3C3B3A3985
:1057A0003837363534333231302F2E2D2C2B2A7D9D
:1057B0007D7D7D535251504F4E4D4C4B4A49484789
:1057C000464544434241403F7D7D7D7D7D6867661F
:1057D0006564636261605F5E5D5C5B5A59585756F1
:1057E00055547D7D7D7D7D7D7D7C7B7A7978777656
:1057F0007574737271706F6E6D6C6B6A693037534C
:10580000C237900F637411F0A37480F0900F63E0BF
:10581000FCA3E0F5828C837406F07F01A23FB3B055
:1058200060501874812FF8E6FE900F63E0FCA3E04F
:105830002FF582E43CF583EEF08010900F63E0FCDE
:10584000A3E02FF582E43CF583E4F00FEFB410CC35
:10585000025905303656C236759D03900F63741198
:10586000F0A37480F0900F63E0FCA3E0FDF5828C60
:10587000837402F0A23FB3B060500D7894E68D823D
:105880008C83A3F018E6800F900F63E0FCA3E0FD8B
:10589000F5828C83A3E4F08D828C83A3A3F0439ADA
:1058A00004E47893F608F6C249F52F22305A61C213
:1058B0005A900F637411F0A37480F0900F63E0FEB0
:1058C000A3E0F5828E837406F07F01A23FB3B0603F
:1058D000501E74142FF582E43400F583E0FE900F1F
:1058E00063E0FCA3E02FF582E43CF583EEF080104A
:1058F000900F63E0FCA3E02FF582E43CF583E4F035
:105900000FEFB410C6759D10439A04C249E4F52FF9
:1059100022152A3F54696A6B6C6D6E6F70717273D9
:105920007475767778797A7B7C7D68533E29282751
:10593000262524232221201F1E1D1C1B1A1918177F
:10594000162B4055565758595A5B5C5D5E5F606137
:10595000626364656667523D3C3B3A393837363599
:1059600034333231302F2E2D2C41424344454647AB
:1059700048494A4B4C4D4E4F50513C3B3A393837D1
:105980003637363534333231455A5B473231455A32
:105990005B4732463231302F2E2D2C2B2A7D474645
:1059A0004544434241403F7D1E1D1C1B1A191817D8
:1059B00016157D7D5C5B5A5958575655547D7D09A7
:1059C0000807060504030201007D7D7D71706E6D80
:1059D0006C6B6A693435363738393A3B3C3D3E7D2D
:1059E00048494A4B4C4D4E4F505152537D1F202138
:1059F00022232425262728297D7D5D5E5F60616244
:105A00006364656667687D7D0A0B0C0D0E0F1011CF
:105A10001213147D7D7D72737475767778797A7B35
:105A20007CAB05AA04EFB416004003025B2B905A2E
:105A300035F8282873025A77025AA8025AAF025A38
:105A4000B6025ABD025ABF025AC6025ACD025ACFF6
:105A5000025AD6025ADD025ADF025AE6025AED0213
:105A60005AF4025AFB025B02025B09025B10025B02
:105A700017025B1E025ADDEA4B24FF92B392B592E5
:105A80008292C7928492C0EA4B24FF92C592C4923C
:105A9000C392C292C192B1EA4B24FF92B492B692E1
:105AA0008F92C6928392B022EA4B24FF92C022EAE0
:105AB0004B24FF92B122EA4B24FF92B0228058EA95
:105AC0004B24FF92C122EA4B24FF928322804FEAAB
:105AD0004B24FF92C222EA4B24FF92C6228046EA60
